{
  "_format": "hh-sol-artifact-1",
  "contractName": "BurgerNFT",
  "sourceName": "contracts/burgerNFT.sol",
  "abi": [
    {
      "inputs": [],
      "stateMutability": "nonpayable",
      "type": "constructor"
    },
    {
      "anonymous": false,
      "inputs": [
        {
          "indexed": true,
          "internalType": "address",
          "name": "owner",
          "type": "address"
        },
        {
          "indexed": true,
          "internalType": "address",
          "name": "approved",
          "type": "address"
        },
        {
          "indexed": true,
          "internalType": "uint256",
          "name": "tokenId",
          "type": "uint256"
        }
      ],
      "name": "Approval",
      "type": "event"
    },
    {
      "anonymous": false,
      "inputs": [
        {
          "indexed": true,
          "internalType": "address",
          "name": "owner",
          "type": "address"
        },
        {
          "indexed": true,
          "internalType": "address",
          "name": "operator",
          "type": "address"
        },
        {
          "indexed": false,
          "internalType": "bool",
          "name": "approved",
          "type": "bool"
        }
      ],
      "name": "ApprovalForAll",
      "type": "event"
    },
    {
      "anonymous": false,
      "inputs": [
        {
          "indexed": true,
          "internalType": "address",
          "name": "previousOwner",
          "type": "address"
        },
        {
          "indexed": true,
          "internalType": "address",
          "name": "newOwner",
          "type": "address"
        }
      ],
      "name": "OwnershipTransferred",
      "type": "event"
    },
    {
      "anonymous": false,
      "inputs": [
        {
          "indexed": true,
          "internalType": "address",
          "name": "from",
          "type": "address"
        },
        {
          "indexed": true,
          "internalType": "address",
          "name": "to",
          "type": "address"
        },
        {
          "indexed": true,
          "internalType": "uint256",
          "name": "tokenId",
          "type": "uint256"
        }
      ],
      "name": "Transfer",
      "type": "event"
    },
    {
      "inputs": [],
      "name": "_tokenIdCounter",
      "outputs": [
        {
          "internalType": "uint256",
          "name": "",
          "type": "uint256"
        }
      ],
      "stateMutability": "view",
      "type": "function"
    },
    {
      "inputs": [
        {
          "internalType": "address",
          "name": "to",
          "type": "address"
        },
        {
          "internalType": "uint256",
          "name": "tokenId",
          "type": "uint256"
        }
      ],
      "name": "approve",
      "outputs": [],
      "stateMutability": "nonpayable",
      "type": "function"
    },
    {
      "inputs": [
        {
          "internalType": "address",
          "name": "owner",
          "type": "address"
        }
      ],
      "name": "balanceOf",
      "outputs": [
        {
          "internalType": "uint256",
          "name": "",
          "type": "uint256"
        }
      ],
      "stateMutability": "view",
      "type": "function"
    },
    {
      "inputs": [
        {
          "internalType": "uint256",
          "name": "tokenId",
          "type": "uint256"
        }
      ],
      "name": "getApproved",
      "outputs": [
        {
          "internalType": "address",
          "name": "",
          "type": "address"
        }
      ],
      "stateMutability": "view",
      "type": "function"
    },
    {
      "inputs": [
        {
          "internalType": "address",
          "name": "owner",
          "type": "address"
        },
        {
          "internalType": "address",
          "name": "operator",
          "type": "address"
        }
      ],
      "name": "isApprovedForAll",
      "outputs": [
        {
          "internalType": "bool",
          "name": "",
          "type": "bool"
        }
      ],
      "stateMutability": "view",
      "type": "function"
    },
    {
      "inputs": [],
      "name": "name",
      "outputs": [
        {
          "internalType": "string",
          "name": "",
          "type": "string"
        }
      ],
      "stateMutability": "view",
      "type": "function"
    },
    {
      "inputs": [],
      "name": "owner",
      "outputs": [
        {
          "internalType": "address",
          "name": "",
          "type": "address"
        }
      ],
      "stateMutability": "view",
      "type": "function"
    },
    {
      "inputs": [
        {
          "internalType": "uint256",
          "name": "tokenId",
          "type": "uint256"
        }
      ],
      "name": "ownerOf",
      "outputs": [
        {
          "internalType": "address",
          "name": "",
          "type": "address"
        }
      ],
      "stateMutability": "view",
      "type": "function"
    },
    {
      "inputs": [],
      "name": "renounceOwnership",
      "outputs": [],
      "stateMutability": "nonpayable",
      "type": "function"
    },
    {
      "inputs": [
        {
          "internalType": "address",
          "name": "to",
          "type": "address"
        }
      ],
      "name": "safeMint",
      "outputs": [],
      "stateMutability": "nonpayable",
      "type": "function"
    },
    {
      "inputs": [
        {
          "internalType": "address",
          "name": "from",
          "type": "address"
        },
        {
          "internalType": "address",
          "name": "to",
          "type": "address"
        },
        {
          "internalType": "uint256",
          "name": "tokenId",
          "type": "uint256"
        }
      ],
      "name": "safeTransferFrom",
      "outputs": [],
      "stateMutability": "nonpayable",
      "type": "function"
    },
    {
      "inputs": [
        {
          "internalType": "address",
          "name": "from",
          "type": "address"
        },
        {
          "internalType": "address",
          "name": "to",
          "type": "address"
        },
        {
          "internalType": "uint256",
          "name": "tokenId",
          "type": "uint256"
        },
        {
          "internalType": "bytes",
          "name": "_data",
          "type": "bytes"
        }
      ],
      "name": "safeTransferFrom",
      "outputs": [],
      "stateMutability": "nonpayable",
      "type": "function"
    },
    {
      "inputs": [
        {
          "internalType": "address",
          "name": "operator",
          "type": "address"
        },
        {
          "internalType": "bool",
          "name": "approved",
          "type": "bool"
        }
      ],
      "name": "setApprovalForAll",
      "outputs": [],
      "stateMutability": "nonpayable",
      "type": "function"
    },
    {
      "inputs": [
        {
          "internalType": "bytes4",
          "name": "interfaceId",
          "type": "bytes4"
        }
      ],
      "name": "supportsInterface",
      "outputs": [
        {
          "internalType": "bool",
          "name": "",
          "type": "bool"
        }
      ],
      "stateMutability": "view",
      "type": "function"
    },
    {
      "inputs": [],
      "name": "symbol",
      "outputs": [
        {
          "internalType": "string",
          "name": "",
          "type": "string"
        }
      ],
      "stateMutability": "view",
      "type": "function"
    },
    {
      "inputs": [
        {
          "internalType": "uint256",
          "name": "tokenId",
          "type": "uint256"
        }
      ],
      "name": "tokenURI",
      "outputs": [
        {
          "internalType": "string",
          "name": "",
          "type": "string"
        }
      ],
      "stateMutability": "view",
      "type": "function"
    },
    {
      "inputs": [
        {
          "internalType": "address",
          "name": "from",
          "type": "address"
        },
        {
          "internalType": "address",
          "name": "to",
          "type": "address"
        },
        {
          "internalType": "uint256",
          "name": "tokenId",
          "type": "uint256"
        }
      ],
      "name": "transferFrom",
      "outputs": [],
      "stateMutability": "nonpayable",
      "type": "function"
    },
    {
      "inputs": [
        {
          "internalType": "address",
          "name": "newOwner",
          "type": "address"
        }
      ],
      "name": "transferOwnership",
      "outputs": [],
      "stateMutability": "nonpayable",
      "type": "function"
    }
  ],
  "bytecode": "0x608060405260006007553480156200001657600080fd5b506040518060400160405280600981526020017f4275726765724e465400000000000000000000000000000000000000000000008152506040518060400160405280600681526020017f425552474552000000000000000000000000000000000000000000000000000081525081600090805190602001906200009b929190620001e2565b508060019080519060200190620000b4929190620001e2565b505050620000d7620000cb6200011160201b60201c565b6200011960201b60201c565b6200010b7f8d135e434056cc83c698e59910972200fe1235ed343f372b9add1df5b17a5f1960001b620001df60201b60201c565b620002f7565b600033905090565b6000600660009054906101000a900473ffffffffffffffffffffffffffffffffffffffff16905081600660006101000a81548173ffffffffffffffffffffffffffffffffffffffff021916908373ffffffffffffffffffffffffffffffffffffffff1602179055508173ffffffffffffffffffffffffffffffffffffffff168173ffffffffffffffffffffffffffffffffffffffff167f8be0079c531659141344cd1fd0a4f28419497f9722a3daafe3b4186f6b6457e060405160405180910390a35050565b50565b828054620001f090620002c1565b90600052602060002090601f01602090048101928262000214576000855562000260565b82601f106200022f57805160ff191683800117855562000260565b8280016001018555821562000260579182015b828111156200025f57825182559160200191906001019062000242565b5b5090506200026f919062000273565b5090565b5b808211156200028e57600081600090555060010162000274565b5090565b7f4e487b7100000000000000000000000000000000000000000000000000000000600052602260045260246000fd5b60006002820490506001821680620002da57607f821691505b60208210811415620002f157620002f062000292565b5b50919050565b612c9980620003076000396000f3fe608060405234801561001057600080fd5b50600436106101165760003560e01c8063715018a6116100a2578063a22cb46511610071578063a22cb465146102cd578063b88d4fde146102e9578063c87b56dd14610305578063e985e9c514610335578063f2fde38b1461036557610116565b8063715018a61461026957806384c4bd4b146102735780638da5cb5b1461029157806395d89b41146102af57610116565b806323b872dd116100e957806323b872dd146101b557806340d097c3146101d157806342842e0e146101ed5780636352211e1461020957806370a082311461023957610116565b806301ffc9a71461011b57806306fdde031461014b578063081812fc14610169578063095ea7b314610199575b600080fd5b61013560048036038101906101309190611b1e565b610381565b6040516101429190611b66565b60405180910390f35b610153610463565b6040516101609190611c1a565b60405180910390f35b610183600480360381019061017e9190611c72565b6104f5565b6040516101909190611ce0565b60405180910390f35b6101b360048036038101906101ae9190611d27565b61057a565b005b6101cf60048036038101906101ca9190611d67565b610692565b005b6101eb60048036038101906101e69190611dba565b6106f2565b005b61020760048036038101906102029190611d67565b610845565b005b610223600480360381019061021e9190611c72565b610865565b6040516102309190611ce0565b60405180910390f35b610253600480360381019061024e9190611dba565b610917565b6040516102609190611df6565b60405180910390f35b6102716109cf565b005b61027b610a57565b6040516102889190611df6565b60405180910390f35b610299610a5d565b6040516102a69190611ce0565b60405180910390f35b6102b7610a87565b6040516102c49190611c1a565b60405180910390f35b6102e760048036038101906102e29190611e3d565b610b19565b005b61030360048036038101906102fe9190611fb2565b610b2f565b005b61031f600480360381019061031a9190611c72565b610b91565b60405161032c9190611c1a565b60405180910390f35b61034f600480360381019061034a9190612035565b610c38565b60405161035c9190611b66565b60405180910390f35b61037f600480360381019061037a9190611dba565b610ccc565b005b60007f80ac58cd000000000000000000000000000000000000000000000000000000007bffffffffffffffffffffffffffffffffffffffffffffffffffffffff1916827bffffffffffffffffffffffffffffffffffffffffffffffffffffffff1916148061044c57507f5b5e139f000000000000000000000000000000000000000000000000000000007bffffffffffffffffffffffffffffffffffffffffffffffffffffffff1916827bffffffffffffffffffffffffffffffffffffffffffffffffffffffff1916145b8061045c575061045b82610dc4565b5b9050919050565b606060008054610472906120a4565b80601f016020809104026020016040519081016040528092919081815260200182805461049e906120a4565b80156104eb5780601f106104c0576101008083540402835291602001916104eb565b820191906000526020600020905b8154815290600101906020018083116104ce57829003601f168201915b5050505050905090565b600061050082610e2e565b61053f576040517f08c379a000000000000000000000000000000000000000000000000000000000815260040161053690612148565b60405180910390fd5b6004600083815260200190815260200160002060009054906101000a900473ffffffffffffffffffffffffffffffffffffffff169050919050565b600061058582610865565b90508073ffffffffffffffffffffffffffffffffffffffff168373ffffffffffffffffffffffffffffffffffffffff1614156105f6576040517f08c379a00000000000000000000000000000000000000000000000000000000081526004016105ed906121da565b60405180910390fd5b8073ffffffffffffffffffffffffffffffffffffffff16610615610e9a565b73ffffffffffffffffffffffffffffffffffffffff16148061064457506106438161063e610e9a565b610c38565b5b610683576040517f08c379a000000000000000000000000000000000000000000000000000000000815260040161067a9061226c565b60405180910390fd5b61068d8383610ea2565b505050565b6106a361069d610e9a565b82610f5b565b6106e2576040517f08c379a00000000000000000000000000000000000000000000000000000000081526004016106d9906122fe565b60405180910390fd5b6106ed838383611039565b505050565b6106fa610e9a565b73ffffffffffffffffffffffffffffffffffffffff16610718610a5d565b73ffffffffffffffffffffffffffffffffffffffff161461076e576040517f08c379a00000000000000000000000000000000000000000000000000000000081526004016107659061236a565b60405180910390fd5b61079a7f280ea7d05b8370d4a858993c8802464774c7d017bf214ddefefc39537c98127360001b6112a0565b6107c67f68c05bbeaa07b2e0168c3f9a553513ee1f2f96d9f47499ea2ade5574de47de0b60001b6112a0565b6107f27f23335237bb8925a07df98653ecd5c4feb0baaf0eec2c3e7663e018c87d050b1160001b6112a0565b6107fe816007546112a3565b61082a7f69937ee1a9aabc46f31a8d6d7886060e56bd55bca1b3e964cc9cc6665ebd2ee360001b6112a0565b6007600081548092919061083d906123b9565b919050555050565b61086083838360405180602001604052806000815250610b2f565b505050565b6000806002600084815260200190815260200160002060009054906101000a900473ffffffffffffffffffffffffffffffffffffffff169050600073ffffffffffffffffffffffffffffffffffffffff168173ffffffffffffffffffffffffffffffffffffffff16141561090e576040517f08c379a000000000000000000000000000000000000000000000000000000000815260040161090590612474565b60405180910390fd5b80915050919050565b60008073ffffffffffffffffffffffffffffffffffffffff168273ffffffffffffffffffffffffffffffffffffffff161415610988576040517f08c379a000000000000000000000000000000000000000000000000000000000815260040161097f90612506565b60405180910390fd5b600360008373ffffffffffffffffffffffffffffffffffffffff1673ffffffffffffffffffffffffffffffffffffffff168152602001908152602001600020549050919050565b6109d7610e9a565b73ffffffffffffffffffffffffffffffffffffffff166109f5610a5d565b73ffffffffffffffffffffffffffffffffffffffff1614610a4b576040517f08c379a0000000000000000000000000000000000000000000000000000000008152600401610a429061236a565b60405180910390fd5b610a5560006112c1565b565b60075481565b6000600660009054906101000a900473ffffffffffffffffffffffffffffffffffffffff16905090565b606060018054610a96906120a4565b80601f0160208091040260200160405190810160405280929190818152602001828054610ac2906120a4565b8015610b0f5780601f10610ae457610100808354040283529160200191610b0f565b820191906000526020600020905b815481529060010190602001808311610af257829003601f168201915b5050505050905090565b610b2b610b24610e9a565b8383611387565b5050565b610b40610b3a610e9a565b83610f5b565b610b7f576040517f08c379a0000000000000000000000000000000000000000000000000000000008152600401610b76906122fe565b60405180910390fd5b610b8b848484846114f4565b50505050565b6060610b9c82610e2e565b610bdb576040517f08c379a0000000000000000000000000000000000000000000000000000000008152600401610bd290612598565b60405180910390fd5b6000610be5611550565b90506000815111610c055760405180602001604052806000815250610c30565b80610c0f84611567565b604051602001610c209291906125f4565b6040516020818303038152906040525b915050919050565b6000600560008473ffffffffffffffffffffffffffffffffffffffff1673ffffffffffffffffffffffffffffffffffffffff16815260200190815260200160002060008373ffffffffffffffffffffffffffffffffffffffff1673ffffffffffffffffffffffffffffffffffffffff16815260200190815260200160002060009054906101000a900460ff16905092915050565b610cd4610e9a565b73ffffffffffffffffffffffffffffffffffffffff16610cf2610a5d565b73ffffffffffffffffffffffffffffffffffffffff1614610d48576040517f08c379a0000000000000000000000000000000000000000000000000000000008152600401610d3f9061236a565b60405180910390fd5b600073ffffffffffffffffffffffffffffffffffffffff168173ffffffffffffffffffffffffffffffffffffffff161415610db8576040517f08c379a0000000000000000000000000000000000000000000000000000000008152600401610daf9061268a565b60405180910390fd5b610dc1816112c1565b50565b60007f01ffc9a7000000000000000000000000000000000000000000000000000000007bffffffffffffffffffffffffffffffffffffffffffffffffffffffff1916827bffffffffffffffffffffffffffffffffffffffffffffffffffffffff1916149050919050565b60008073ffffffffffffffffffffffffffffffffffffffff166002600084815260200190815260200160002060009054906101000a900473ffffffffffffffffffffffffffffffffffffffff1673ffffffffffffffffffffffffffffffffffffffff1614159050919050565b600033905090565b816004600083815260200190815260200160002060006101000a81548173ffffffffffffffffffffffffffffffffffffffff021916908373ffffffffffffffffffffffffffffffffffffffff160217905550808273ffffffffffffffffffffffffffffffffffffffff16610f1583610865565b73ffffffffffffffffffffffffffffffffffffffff167f8c5be1e5ebec7d5bd14f71427d1e84f3dd0314c0f7b2291e5b200ac8c7c3b92560405160405180910390a45050565b6000610f6682610e2e565b610fa5576040517f08c379a0000000000000000000000000000000000000000000000000000000008152600401610f9c9061271c565b60405180910390fd5b6000610fb083610865565b90508073ffffffffffffffffffffffffffffffffffffffff168473ffffffffffffffffffffffffffffffffffffffff16148061101f57508373ffffffffffffffffffffffffffffffffffffffff16611007846104f5565b73ffffffffffffffffffffffffffffffffffffffff16145b80611030575061102f8185610c38565b5b91505092915050565b8273ffffffffffffffffffffffffffffffffffffffff1661105982610865565b73ffffffffffffffffffffffffffffffffffffffff16146110af576040517f08c379a00000000000000000000000000000000000000000000000000000000081526004016110a6906127ae565b60405180910390fd5b600073ffffffffffffffffffffffffffffffffffffffff168273ffffffffffffffffffffffffffffffffffffffff16141561111f576040517f08c379a000000000000000000000000000000000000000000000000000000000815260040161111690612840565b60405180910390fd5b61112a8383836116c8565b611135600082610ea2565b6001600360008573ffffffffffffffffffffffffffffffffffffffff1673ffffffffffffffffffffffffffffffffffffffff16815260200190815260200160002060008282546111859190612860565b925050819055506001600360008473ffffffffffffffffffffffffffffffffffffffff1673ffffffffffffffffffffffffffffffffffffffff16815260200190815260200160002060008282546111dc9190612894565b92505081905550816002600083815260200190815260200160002060006101000a81548173ffffffffffffffffffffffffffffffffffffffff021916908373ffffffffffffffffffffffffffffffffffffffff160217905550808273ffffffffffffffffffffffffffffffffffffffff168473ffffffffffffffffffffffffffffffffffffffff167fddf252ad1be2c89b69c2b068fc378daa952ba7f163c4a11628f55a4df523b3ef60405160405180910390a461129b8383836116cd565b505050565b50565b6112bd8282604051806020016040528060008152506116d2565b5050565b6000600660009054906101000a900473ffffffffffffffffffffffffffffffffffffffff16905081600660006101000a81548173ffffffffffffffffffffffffffffffffffffffff021916908373ffffffffffffffffffffffffffffffffffffffff1602179055508173ffffffffffffffffffffffffffffffffffffffff168173ffffffffffffffffffffffffffffffffffffffff167f8be0079c531659141344cd1fd0a4f28419497f9722a3daafe3b4186f6b6457e060405160405180910390a35050565b8173ffffffffffffffffffffffffffffffffffffffff168373ffffffffffffffffffffffffffffffffffffffff1614156113f6576040517f08c379a00000000000000000000000000000000000000000000000000000000081526004016113ed90612936565b60405180910390fd5b80600560008573ffffffffffffffffffffffffffffffffffffffff1673ffffffffffffffffffffffffffffffffffffffff16815260200190815260200160002060008473ffffffffffffffffffffffffffffffffffffffff1673ffffffffffffffffffffffffffffffffffffffff16815260200190815260200160002060006101000a81548160ff0219169083151502179055508173ffffffffffffffffffffffffffffffffffffffff168373ffffffffffffffffffffffffffffffffffffffff167f17307eab39ab6107e8899845ad3d59bd9653f200f220920489ca2b5937696c31836040516114e79190611b66565b60405180910390a3505050565b6114ff848484611039565b61150b8484848461172d565b61154a576040517f08c379a0000000000000000000000000000000000000000000000000000000008152600401611541906129c8565b60405180910390fd5b50505050565b606060405180602001604052806000815250905090565b606060008214156115af576040518060400160405280600181526020017f300000000000000000000000000000000000000000000000000000000000000081525090506116c3565b600082905060005b600082146115e15780806115ca906123b9565b915050600a826115da9190612a17565b91506115b7565b60008167ffffffffffffffff8111156115fd576115fc611e87565b5b6040519080825280601f01601f19166020018201604052801561162f5781602001600182028036833780820191505090505b5090505b600085146116bc576001826116489190612860565b9150600a856116579190612a48565b60306116639190612894565b60f81b81838151811061167957611678612a79565b5b60200101907effffffffffffffffffffffffffffffffffffffffffffffffffffffffffffff1916908160001a905350600a856116b59190612a17565b9450611633565b8093505050505b919050565b505050565b505050565b6116dc83836118b5565b6116e9600084848461172d565b611728576040517f08c379a000000000000000000000000000000000000000000000000000000000815260040161171f906129c8565b60405180910390fd5b505050565b600061174e8473ffffffffffffffffffffffffffffffffffffffff16611a8f565b156118a8578373ffffffffffffffffffffffffffffffffffffffff1663150b7a02611777610e9a565b8786866040518563ffffffff1660e01b81526004016117999493929190612afd565b6020604051808303816000875af19250505080156117d557506040513d601f19601f820116820180604052508101906117d29190612b5e565b60015b611858573d8060008114611805576040519150601f19603f3d011682016040523d82523d6000602084013e61180a565b606091505b50600081511415611850576040517f08c379a0000000000000000000000000000000000000000000000000000000008152600401611847906129c8565b60405180910390fd5b805181602001fd5b63150b7a0260e01b7bffffffffffffffffffffffffffffffffffffffffffffffffffffffff1916817bffffffffffffffffffffffffffffffffffffffffffffffffffffffff1916149150506118ad565b600190505b949350505050565b600073ffffffffffffffffffffffffffffffffffffffff168273ffffffffffffffffffffffffffffffffffffffff161415611925576040517f08c379a000000000000000000000000000000000000000000000000000000000815260040161191c90612bd7565b60405180910390fd5b61192e81610e2e565b1561196e576040517f08c379a000000000000000000000000000000000000000000000000000000000815260040161196590612c43565b60405180910390fd5b61197a600083836116c8565b6001600360008473ffffffffffffffffffffffffffffffffffffffff1673ffffffffffffffffffffffffffffffffffffffff16815260200190815260200160002060008282546119ca9190612894565b92505081905550816002600083815260200190815260200160002060006101000a81548173ffffffffffffffffffffffffffffffffffffffff021916908373ffffffffffffffffffffffffffffffffffffffff160217905550808273ffffffffffffffffffffffffffffffffffffffff16600073ffffffffffffffffffffffffffffffffffffffff167fddf252ad1be2c89b69c2b068fc378daa952ba7f163c4a11628f55a4df523b3ef60405160405180910390a4611a8b600083836116cd565b5050565b6000808273ffffffffffffffffffffffffffffffffffffffff163b119050919050565b6000604051905090565b600080fd5b600080fd5b60007fffffffff0000000000000000000000000000000000000000000000000000000082169050919050565b611afb81611ac6565b8114611b0657600080fd5b50565b600081359050611b1881611af2565b92915050565b600060208284031215611b3457611b33611abc565b5b6000611b4284828501611b09565b91505092915050565b60008115159050919050565b611b6081611b4b565b82525050565b6000602082019050611b7b6000830184611b57565b92915050565b600081519050919050565b600082825260208201905092915050565b60005b83811015611bbb578082015181840152602081019050611ba0565b83811115611bca576000848401525b50505050565b6000601f19601f8301169050919050565b6000611bec82611b81565b611bf68185611b8c565b9350611c06818560208601611b9d565b611c0f81611bd0565b840191505092915050565b60006020820190508181036000830152611c348184611be1565b905092915050565b6000819050919050565b611c4f81611c3c565b8114611c5a57600080fd5b50565b600081359050611c6c81611c46565b92915050565b600060208284031215611c8857611c87611abc565b5b6000611c9684828501611c5d565b91505092915050565b600073ffffffffffffffffffffffffffffffffffffffff82169050919050565b6000611cca82611c9f565b9050919050565b611cda81611cbf565b82525050565b6000602082019050611cf56000830184611cd1565b92915050565b611d0481611cbf565b8114611d0f57600080fd5b50565b600081359050611d2181611cfb565b92915050565b60008060408385031215611d3e57611d3d611abc565b5b6000611d4c85828601611d12565b9250506020611d5d85828601611c5d565b9150509250929050565b600080600060608486031215611d8057611d7f611abc565b5b6000611d8e86828701611d12565b9350506020611d9f86828701611d12565b9250506040611db086828701611c5d565b9150509250925092565b600060208284031215611dd057611dcf611abc565b5b6000611dde84828501611d12565b91505092915050565b611df081611c3c565b82525050565b6000602082019050611e0b6000830184611de7565b92915050565b611e1a81611b4b565b8114611e2557600080fd5b50565b600081359050611e3781611e11565b92915050565b60008060408385031215611e5457611e53611abc565b5b6000611e6285828601611d12565b9250506020611e7385828601611e28565b9150509250929050565b600080fd5b600080fd5b7f4e487b7100000000000000000000000000000000000000000000000000000000600052604160045260246000fd5b611ebf82611bd0565b810181811067ffffffffffffffff82111715611ede57611edd611e87565b5b80604052505050565b6000611ef1611ab2565b9050611efd8282611eb6565b919050565b600067ffffffffffffffff821115611f1d57611f1c611e87565b5b611f2682611bd0565b9050602081019050919050565b82818337600083830152505050565b6000611f55611f5084611f02565b611ee7565b905082815260208101848484011115611f7157611f70611e82565b5b611f7c848285611f33565b509392505050565b600082601f830112611f9957611f98611e7d565b5b8135611fa9848260208601611f42565b91505092915050565b60008060008060808587031215611fcc57611fcb611abc565b5b6000611fda87828801611d12565b9450506020611feb87828801611d12565b9350506040611ffc87828801611c5d565b925050606085013567ffffffffffffffff81111561201d5761201c611ac1565b5b61202987828801611f84565b91505092959194509250565b6000806040838503121561204c5761204b611abc565b5b600061205a85828601611d12565b925050602061206b85828601611d12565b9150509250929050565b7f4e487b7100000000000000000000000000000000000000000000000000000000600052602260045260246000fd5b600060028204905060018216806120bc57607f821691505b602082108114156120d0576120cf612075565b5b50919050565b7f4552433732313a20617070726f76656420717565727920666f72206e6f6e657860008201527f697374656e7420746f6b656e0000000000000000000000000000000000000000602082015250565b6000612132602c83611b8c565b915061213d826120d6565b604082019050919050565b6000602082019050818103600083015261216181612125565b9050919050565b7f4552433732313a20617070726f76616c20746f2063757272656e74206f776e6560008201527f7200000000000000000000000000000000000000000000000000000000000000602082015250565b60006121c4602183611b8c565b91506121cf82612168565b604082019050919050565b600060208201905081810360008301526121f3816121b7565b9050919050565b7f4552433732313a20617070726f76652063616c6c6572206973206e6f74206f7760008201527f6e6572206e6f7220617070726f76656420666f7220616c6c0000000000000000602082015250565b6000612256603883611b8c565b9150612261826121fa565b604082019050919050565b6000602082019050818103600083015261228581612249565b9050919050565b7f4552433732313a207472616e736665722063616c6c6572206973206e6f74206f60008201527f776e6572206e6f7220617070726f766564000000000000000000000000000000602082015250565b60006122e8603183611b8c565b91506122f38261228c565b604082019050919050565b60006020820190508181036000830152612317816122db565b9050919050565b7f4f776e61626c653a2063616c6c6572206973206e6f7420746865206f776e6572600082015250565b6000612354602083611b8c565b915061235f8261231e565b602082019050919050565b6000602082019050818103600083015261238381612347565b9050919050565b7f4e487b7100000000000000000000000000000000000000000000000000000000600052601160045260246000fd5b60006123c482611c3c565b91507fffffffffffffffffffffffffffffffffffffffffffffffffffffffffffffffff8214156123f7576123f661238a565b5b600182019050919050565b7f4552433732313a206f776e657220717565727920666f72206e6f6e657869737460008201527f656e7420746f6b656e0000000000000000000000000000000000000000000000602082015250565b600061245e602983611b8c565b915061246982612402565b604082019050919050565b6000602082019050818103600083015261248d81612451565b9050919050565b7f4552433732313a2062616c616e636520717565727920666f7220746865207a6560008201527f726f206164647265737300000000000000000000000000000000000000000000602082015250565b60006124f0602a83611b8c565b91506124fb82612494565b604082019050919050565b6000602082019050818103600083015261251f816124e3565b9050919050565b7f4552433732314d657461646174613a2055524920717565727920666f72206e6f60008201527f6e6578697374656e7420746f6b656e0000000000000000000000000000000000602082015250565b6000612582602f83611b8c565b915061258d82612526565b604082019050919050565b600060208201905081810360008301526125b181612575565b9050919050565b600081905092915050565b60006125ce82611b81565b6125d881856125b8565b93506125e8818560208601611b9d565b80840191505092915050565b600061260082856125c3565b915061260c82846125c3565b91508190509392505050565b7f4f776e61626c653a206e6577206f776e657220697320746865207a65726f206160008201527f6464726573730000000000000000000000000000000000000000000000000000602082015250565b6000612674602683611b8c565b915061267f82612618565b604082019050919050565b600060208201905081810360008301526126a381612667565b9050919050565b7f4552433732313a206f70657261746f7220717565727920666f72206e6f6e657860008201527f697374656e7420746f6b656e0000000000000000000000000000000000000000602082015250565b6000612706602c83611b8c565b9150612711826126aa565b604082019050919050565b60006020820190508181036000830152612735816126f9565b9050919050565b7f4552433732313a207472616e736665722066726f6d20696e636f72726563742060008201527f6f776e6572000000000000000000000000000000000000000000000000000000602082015250565b6000612798602583611b8c565b91506127a38261273c565b604082019050919050565b600060208201905081810360008301526127c78161278b565b9050919050565b7f4552433732313a207472616e7366657220746f20746865207a65726f2061646460008201527f7265737300000000000000000000000000000000000000000000000000000000602082015250565b600061282a602483611b8c565b9150612835826127ce565b604082019050919050565b600060208201905081810360008301526128598161281d565b9050919050565b600061286b82611c3c565b915061287683611c3c565b9250828210156128895761288861238a565b5b828203905092915050565b600061289f82611c3c565b91506128aa83611c3c565b9250827fffffffffffffffffffffffffffffffffffffffffffffffffffffffffffffffff038211156128df576128de61238a565b5b828201905092915050565b7f4552433732313a20617070726f766520746f2063616c6c657200000000000000600082015250565b6000612920601983611b8c565b915061292b826128ea565b602082019050919050565b6000602082019050818103600083015261294f81612913565b9050919050565b7f4552433732313a207472616e7366657220746f206e6f6e20455243373231526560008201527f63656976657220696d706c656d656e7465720000000000000000000000000000602082015250565b60006129b2603283611b8c565b91506129bd82612956565b604082019050919050565b600060208201905081810360008301526129e1816129a5565b9050919050565b7f4e487b7100000000000000000000000000000000000000000000000000000000600052601260045260246000fd5b6000612a2282611c3c565b9150612a2d83611c3c565b925082612a3d57612a3c6129e8565b5b828204905092915050565b6000612a5382611c3c565b9150612a5e83611c3c565b925082612a6e57612a6d6129e8565b5b828206905092915050565b7f4e487b7100000000000000000000000000000000000000000000000000000000600052603260045260246000fd5b600081519050919050565b600082825260208201905092915050565b6000612acf82612aa8565b612ad98185612ab3565b9350612ae9818560208601611b9d565b612af281611bd0565b840191505092915050565b6000608082019050612b126000830187611cd1565b612b1f6020830186611cd1565b612b2c6040830185611de7565b8181036060830152612b3e8184612ac4565b905095945050505050565b600081519050612b5881611af2565b92915050565b600060208284031215612b7457612b73611abc565b5b6000612b8284828501612b49565b91505092915050565b7f4552433732313a206d696e7420746f20746865207a65726f2061646472657373600082015250565b6000612bc1602083611b8c565b9150612bcc82612b8b565b602082019050919050565b60006020820190508181036000830152612bf081612bb4565b9050919050565b7f4552433732313a20746f6b656e20616c7265616479206d696e74656400000000600082015250565b6000612c2d601c83611b8c565b9150612c3882612bf7565b602082019050919050565b60006020820190508181036000830152612c5c81612c20565b905091905056fea2646970667358221220712d59899516e729c658a8649be3be5778e7b9036a3540942f08a101a23d385064736f6c634300080b0033",
  "linkReferences": {},
  "deployedLinkReferences": {}
}